:1000000017EF00F0EA6A060EE96EEF500EE0010EFF
:10001000016E006A002EFED7012EFBD74A0E006E3D
:10002000002EFED700D0EF2EF2D734EF00F0F86AA2
:10003000D09EEA6AE96A000E7E6EC198C19A7F502E
:10004000E00B7F6E799A79987A6A7B6A0550052A67
:10005000946A8B6E046A0450070808E3956A04C02A
:100060008CFF640E066ECED7042AF5D7EFD7000EAC
:04007000016E03001A
:020000040030CA
:0E00000000C21E1E008F81000FC00FE00F40D7
:00000001FF
;PIC18F46K20
;CRC=D46A  CREATED="14-ago-13 10:17"
